:020000040000FA
:100000000002002081020000890200008B02000033
:100010008D0200008F02000091020000000000002D
:10002000000000000000000000000000930200003B
:1000300095020000000000009702000099020000F5
:100040009B0200009D0200009F020000A102000030
:10005000A3020000A5020000A7020000A902000000
:10006000AB020000AD020000AF020000B1020000D0
:10007000B3020000B5020000B7020000B9020000A0
:10008000BB020000BD020000BF020000C102000070
:10009000C3020000C5020000C7020000C902000040
:1000A000CB020000CD020000CF020000D102000010
:1000B000D3020000D5020000D7020000D9020000E0
:1000C000DB020000DD020000DF020000E1020000B0
:1000D000E3020000E5020000E7020000E902000080
:1000E000EB020000ED02000000000000EF02000043
:1000F000F1020000F3020000F5020000F702000028
:10010000F9020000FB020000FD020000FF020000F7
:1001100000000000000000000103000003030000D5
:100120000503000007030000090300000B030000A3
:100130000D0300000F030000110300001303000073
:1001400000000000000000000000000000000000AF
:100150001503000017030000190300001B03000033
:10016000000000000000000000000000000000008F
:10017000000000000000000000000000000000007F
:10018000000000000000000000000000000000006F
:10019000000000000000000000000000000000005F
:1001A000000000000000000000000000000000004F
:1001B0001D0300001F0300002103000023030000B3
:1001C0002503000027030000290300002B03000083
:1001D0002D0300002F030000310300003303000053
:1001E0003503000037030000390300000000000061
:1001F000000000003B0300003D0300003F0300003F
:100200004103000043030000000000000000000064
:100210004503000047030000490300004B030000B2
:100220004D0300004F030000510300005303000082
:100230005503000057030000590300005B03000052
:100240005D0300005F030000610300006303000022
:100250006503000067030000690300006B030000F2
:100260006D0300006F03000071030000DFF80CD085
:1002700000F01AF9004800475B040000000200206B
:100280003C4880473C480047FEE7FEE7FEE7FEE7C4
:10029000FEE7FEE7FEE7FEE7FEE7FEE7FEE7FEE736
:1002A000FEE7FEE7FEE7FEE7FEE7FEE7FEE7FEE726
:1002B000FEE7FEE7FEE7FEE7FEE7FEE7FEE7FEE716
:1002C000FEE7FEE7FEE7FEE7FEE7FEE7FEE7FEE706
:1002D000FEE7FEE7FEE7FEE7FEE7FEE7FEE7FEE7F6
:1002E000FEE7FEE7FEE7FEE7FEE7FEE7FEE7FEE7E6
:1002F000FEE7FEE7FEE7FEE7FEE7FEE7FEE7FEE7D6
:10030000FEE7FEE7FEE7FEE7FEE7FEE7FEE7FEE7C5
:10031000FEE7FEE7FEE7FEE7FEE7FEE7FEE7FEE7B5
:10032000FEE7FEE7FEE7FEE7FEE7FEE7FEE7FEE7A5
:10033000FEE7FEE7FEE7FEE7FEE7FEE7FEE7FEE795
:10034000FEE7FEE7FEE7FEE7FEE7FEE7FEE7FEE785
:10035000FEE7FEE7FEE7FEE7FEE7FEE7FEE7FEE775
:10036000FEE7FEE7FEE7FEE7FEE7FEE7FEE7FEE765
:10037000FEE700007D0300006D02000040480068B9
:1003800040F470003E490860704708B53D48006879
:1003900040F003003B4908600846006800903A4876
:1003A000006840F0FF00384908603848006840F0B5
:1003B000FF00364908600020344920310860344885
:1003C000006840F03C00324908603248006840F064
:1003D0003C003049086000202E492031086008BDEB
:1003E00008B50021009102E00099491C0091009994
:1003F0008142F9D308BD01B582B00020019027E009
:10040000002000901EE0FF20234908600099029818
:1004100008444FF00E01B0FBF1F201FB12001F493E
:10042000085C1F49C1F8FC030098C0F103001D4996
:10043000085C194908604FF47A70FFF7D1FF009803
:10044000401C009000980428DDD30198401C0190C6
:100450000198B0F5967FD3D30EBD08B5002000906B
:10046000FFF793FF0AE00098FFF7C5FF0098401CD4
:10047000009000981B2801D100200090F3E70000B5
:1004800088ED00E008E60F401C5500400054004095
:100490001C45004000440040F0400040EA040000D9
:1004A00000500040F8040000064C074D06E0E068EC
:1004B00040F0010394E8070098471034AC42F6D3AB
:1004C000FFF7D8FEFC0400000C05000002E008C89D
:1004D000121F08C1002AFAD170477047002001E0BE
:1004E00001C1121F002AFBD17047E1C1CFC686FFB0
:1004F0008CCFC788FFA1C0FFFBF7EFDF0C05000022
:0C0500000000002000020000DC040000ED
:040000050000028174
:00000001FF
