:020000040000FA
:1000000000020020970200009F020000A1020000F1
:10001000A3020000A5020000A702000000000000EB
:10002000000000000000000000000000A902000025
:10003000AB02000000000000AD020000AF020000B3
:10004000B1020000E7040000B5020000B7020000A2
:10005000B9020000BB020000BD020000BF020000A8
:10006000C1020000C3020000C5020000C702000078
:10007000C9020000CB020000CD020000CF02000048
:10008000D1020000D3020000D5020000D702000018
:10009000D9020000DB020000DD020000DF020000E8
:1000A000E1020000E3020000E5020000E7020000B8
:1000B000E9020000EB02000015050000EF0200005D
:1000C000F1020000F3020000F5020000F702000058
:1000D000F9020000FB020000FD020000FF02000028
:1000E00001030000030300000000000005030000FE
:1000F00007030000090300000B0300000D030000CC
:100100000F0300001103000013030000150300009B
:1001100000000000000000001703000019030000A9
:100120001B0300001D0300001F030000210300004B
:10013000230300002503000027030000290300001B
:1001400000000000000000000000000000000000AF
:100150002B0300002D0300002F03000031030000DB
:10016000000000000000000000000000000000008F
:10017000000000000000000000000000000000007F
:10018000000000000000000000000000000000006F
:10019000000000000000000000000000000000005F
:1001A000000000000000000000000000000000004F
:1001B000330300003503000037030000390300005B
:1001C0003B0300003D0300003F030000410300002B
:1001D00043030000450300004703000049030000FB
:1001E0004B0300004D0300004F030000000000001F
:1001F00000000000510300005303000055030000FD
:100200005703000059030000000000000000000038
:100210005B0300005D0300005F030000610300005A
:10022000630300006503000067030000690300002A
:100230006B0300006D0300006F03000071030000FA
:1002400073030000750300007703000079030000CA
:100250007B0300007D0300007F030000810300009A
:10026000830300008503000087030000DFF80CD043
:1002700000F08EF90048004743050000000200200E
:1002800072B6704762B670474FF0000080F3118875
:10029000704730BF70473C4880473C480047FEE706
:1002A000FEE7FEE7FEE7FEE7FEE7FEE7FEE7FEE726
:1002B000FEE7FEE7FEE7FEE7FEE7FEE7FEE7FEE716
:1002C000FEE7FEE7FEE7FEE7FEE7FEE7FEE7FEE706
:1002D000FEE7FEE7FEE7FEE7FEE7FEE7FEE7FEE7F6
:1002E000FEE7FEE7FEE7FEE7FEE7FEE7FEE7FEE7E6
:1002F000FEE7FEE7FEE7FEE7FEE7FEE7FEE7FEE7D6
:10030000FEE7FEE7FEE7FEE7FEE7FEE7FEE7FEE7C5
:10031000FEE7FEE7FEE7FEE7FEE7FEE7FEE7FEE7B5
:10032000FEE7FEE7FEE7FEE7FEE7FEE7FEE7FEE7A5
:10033000FEE7FEE7FEE7FEE7FEE7FEE7FEE7FEE795
:10034000FEE7FEE7FEE7FEE7FEE7FEE7FEE7FEE785
:10035000FEE7FEE7FEE7FEE7FEE7FEE7FEE7FEE775
:10036000FEE7FEE7FEE7FEE7FEE7FEE7FEE7FEE765
:10037000FEE7FEE7FEE7FEE7FEE7FEE7FEE7FEE755
:10038000FEE7FEE7FEE7FEE7910300006D020000D6
:100390006E48006840F470006C490860704708B50A
:1003A00000210091009102E00099491C0091009900
:1003B0008142F9D308BD08B56548006840F00200E5
:1003C000634908600846006840F02000086008465D
:1003D000006800905F48006840F010005D490860C8
:1003E0005C480C38006840F010005A490C3908602D
:1003F0005948006820F010005749086057480068C5
:1004000040F010005549086054480C38006840F02E
:10041000100052490C3908605148006820F0100063
:100420004F4908604D48006840F00A004B49086099
:100430004B48006840F00A0049490860FFF720FF78
:100440004848006840F002004FF0E021C1F8000188
:100450004548006840F40040434908604FF0E02000
:10046000D0F8000140F080404FF0E021C1F80001D9
:100470003E48006840F400103C4908603C48006871
:100480004FF000003A4908603A48006820F0100038
:10049000384908603848006820F010003649086084
:1004A0003348006840F01000314908603348006864
:1004B0004FF00000314908603148006820F010001A
:1004C0002F4908602F48006820F010002D4908606F
:1004D0002A48006840F0100028490860FFF7D4FE61
:1004E000FFF7D0FE08BD22480C30006840F0100035
:1004F0001F490C3108602448006820F0020023499D
:10050000C1F8FC030846D0F8FC0340F00800C1F82D
:10051000FC03704719480C30006840F01000174980
:100520000C3108601848006820F008001749C1F82D
:10053000FC030846D0F8FC0340F00200C1F8FC03BD
:100540007047FFF738FF00BFFEE7000088ED00E0CE
:1005500008E60F401C550040005400401C55024066
:100560000054024000E100E000E400E01CE400E090
:1005700010540040045400400C54004010540240F9
:10058000045402400C540240FC530240005002400C
:10059000064C074D06E0E06840F0010394E80700D0
:1005A00098471034AC42F6D3FFF764FED405000040
:1005B000E405000002E008C8121F08C1002AFAD1B1
:1005C00070477047002001E001C1121F002AFBD1D3
:1005D00070470000E4050000000000200002000059
:0405E000C40500004E
:04000005000002975E
:00000001FF
